:100000000C9462000C947E030C94A5030C948A005B
:100010000C948A000C948A000C948A000C948A0038
:100020000C948A000C948A000C948A000C948A0028
:100030000C948A000C948A000C948A000C948A0018
:100040000C94CC030C948A000C9413070C94450771
:100050000C948A000C948A000C948A000C948A00F8
:100060000C948A000C948A00000000080002010031
:100070000003040700000000000000000102040863
:100080001020408001020408102001020408102002
:10009000040404040404040402020202020203032E
:1000A00003030303000000002300260029000000D2
:1000B0000000250028002B0000000000240027007D
:1000C0002A00750711241FBECFEFD8E0DEBFCDBFD9
:1000D00011E0A0E0B1E0E6EEF7E102C005900D927C
:1000E000A635B107D9F722E0A6E5B1E001C01D921F
:1000F000A032B207E1F710E0C4ECD0E004C02297D0
:10010000FE010E94ED0BC23CD107C9F70E94B9075E
:100110000C94F10B0C94000082E00E94A50501975D
:1001200071F483E00E94A50540917601509177011A
:100130006091780170917901892B99F40DC083E069
:100140000E94A50540917601509177016091780158
:1001500070917901019729F44F5F5F4F6F4F7F4F87
:1001600004C04150510961097109409376015093CF
:1001700077016093780170937901089583E00E947C
:10018000A505019771F482E00E94A50540917601D2
:10019000509177016091780170917901019799F4FC
:1001A0000DC082E00E94A505409176015091770133
:1001B0006091780170917901892B29F44F5F5F4F2D
:1001C0006F4F7F4F04C0415051096109710940933D
:1001D00076015093770160937801709379010895C7
:1001E00026E040E855E260E070E083E891E00E949C
:1001F000B10660E082E00E94360560E083E00E9484
:10020000360561E084E00E94360541E050E06CE88C
:1002100070E080E00E945E0341E050E06EEB70E031
:1002200081E00C945E038F929F92AF92BF92CF9227
:10023000DF92EF92FF920F931F93CF93DF936B01A7
:100240007C0149015A0120E030E04FE753EC0E9465
:100250005E0B87FD0AC020E030E04FE753E4C701A2
:10026000B6010E940F0A18167CF520E030E04FE737
:1002700053E4C701B6010E945E0B18164CF420E04F
:1002800030E04FE753E4C701B6010E94AA0912C04B
:1002900020E030E04FE753ECC701B6010E940F0A9F
:1002A00087FF12C020E030E04FE753E4C701B601FA
:1002B0000E94AB096B017C0120E030E0A9010E94A3
:1002C0005E0B1816ACF003C0C12CD12C7601C1E036
:1002D000D0E020E030E0A901C701B6010E940F0A7A
:1002E00087FD02C0C0E0D0E0D195C195D10902C020
:1002F000C1E0D0E020E030E0A901C501B4010E94D6
:100300005E0B01E010E0181674F020E030E0A90167
:10031000C501B4010E940F0A87FD02C000E010E091
:10032000119501951109C017D10759F420E030E06B
:10033000A901C701B6010E940F0A882311F081E0CC
:1003400000C0DF91CF911F910F91FF90EF90DF9050
:10035000CF90BF90AF909F908F9008954F925F92F3
:100360006F927F928F929F92AF92BF92CF92DF92C5
:10037000EF92FF92CF93DF9300D000D0CDB7DEB7DE
:100380006B017C012091100130911101409112010B
:10039000509113010E94620B4B015C0160936A0152
:1003A00070936B0180936C0190936D0160915E017D
:1003B00070915F018091600190916101A7019601A8
:1003C0000E941301882321F020E030E0A9010AC037
:1003D0002DEC3CEC4CE45DE3C701B6010E94620BDE
:1003E0009B01AC0160916601709167018091680189
:1003F000909169010E94AB09609366017093670157
:10040000809368019093690120910C0130910D0156
:1004100040910E0150910F0160916601709167014A
:1004200080916801909169010E94620B2B013C014F
:1004300060936601709367018093680190936901EE
:100440008091560190915701A0915801B0915901A6
:1004500089839A83AB83BC83209108013091090181
:1004600040910A0150910B01C701B6010E94620B35
:1004700029813A814B815C810E94AA092091040163
:100480003091050140910601509107010E94620BD5
:100490006B017C016093620170936301809364013E
:1004A00090936501A3019201C501B4010E94AB09BB
:1004B000A70196010E94AB094B015C0160935E01AC
:1004C00070935F01809360019093610120E030E0C0
:1004D0004FE753E40E945E0B18162CF480E090E086
:1004E000AFE7B3E40EC020E030E04FE753ECC501C6
:1004F000B4010E940F0A87FF0DC080E090E0AFE7D3
:10050000B3EC80935A0190935B01A0935C01B0938C
:100510005D0108C080925A0190925B01A0925C013B
:10052000B0925D012DEC3CEC4CE45DE3C701B601FB
:100530000E94620B9B01AC0169817A818B819C8155
:100540000E94AB0960935601709357018093580144
:10055000909359010F900F900F900F90DF91CF91D2
:10056000FF90EF90DF90CF90BF90AF909F908F90D3
:100570007F906F905F904F90089560917601709199
:10058000770180917801909179010E94AE0A22E171
:100590003EE64AE25CE30E94620B60936E01709358
:1005A0006F0180937001909371012091000130914F
:1005B000010140910201509103010E94AA09609338
:1005C000720170937301809374019093750168E1D7
:1005D00071E083E891E00E9406084091000150918B
:1005E0000101609102017091030122E030E083E893
:1005F00091E00E949709609172017091730180915E
:100600007401909175010E94AE0160935A0170933C
:100610005B0180935C0190935D0168E271E083E887
:1006200091E00E94060840915A0150915B0160914F
:100630005C0170915D0122E030E083E891E00E946E
:10064000970920E030E0A90160915A0170915B01A7
:1006500080915C0190915D010E940F0A87FF16C096
:1006600061E084E00E946F0580915A0190915B01E6
:10067000A0915C01B0915D01B05880935A019093B4
:100680005B01A0935C01B0935D0104C060E084E075
:100690000E946F0560915A0170915B0180915C012D
:1006A00090915D010E947B0A89E00E94AE0462E3A2
:1006B00070E080E090E00C94390408958230E8F412
:1006C000E82FF0E0EE0FFF1FEC5EFE4F71836083BA
:1006D000813041F0809169008C7F842B8093690088
:1006E000E89A089580916900440F551F440F551FE3
:1006F000837F842B80936900E99A08951F920F925B
:100700000FB60F9211242F933F934F935F936F93E4
:100710007F938F939F93AF93BF93EF93FF93E0915A
:100720001401F09115010995FF91EF91BF91AF91DF
:100730009F918F917F916F915F914F913F912F91F9
:100740000F900FBE0F901F9018951F920F920FB62B
:100750000F9211242F933F934F935F936F937F9347
:100760008F939F93AF93BF93EF93FF93E091160105
:10077000F09117010995FF91EF91BF91AF919F9172
:100780008F917F916F915F914F913F912F910F903A
:100790000FBE0F901F9018951F920F920FB60F92D9
:1007A00011242F933F938F939F93AF93BF93809187
:1007B0007B0190917C01A0917D01B0917E013091EF
:1007C0007A0123E0230F2D3720F40196A11DB11DDE
:1007D00005C026E8230F0296A11DB11D20937A01C2
:1007E00080937B0190937C01A0937D01B0937E0167
:1007F00080917F0190918001A0918101B09182014F
:100800000196A11DB11D80937F0190938001A0935B
:100810008101B0938201BF91AF919F918F913F91E0
:100820002F910F900FBE0F901F9018953FB7F8941F
:1008300080917F0190918001A0918101B09182010E
:1008400026B5A89B05C02F3F19F00196A11DB11D2B
:100850003FBF6627782F892F9A2F620F711D811D48
:10086000911D42E0660F771F881F991F4A95D1F7A7
:1008700008958F929F92AF92BF92CF92DF92EF92A4
:10088000FF926B017C010E9416044B015C01C114B4
:10089000D104E104F104F1F00E94A9090E941604B8
:1008A000681979098A099B09683E73408105910599
:1008B00070F321E0C21AD108E108F10888EE880E31
:1008C00083E0981EA11CB11CC114D104E104F10401
:1008D00029F7DDCFFF90EF90DF90CF90BF90AF90E2
:1008E0009F908F900895789484B5826084BD84B57C
:1008F000816084BD85B5826085BD85B5816085BD1B
:10090000EEE6F0E0808181608083E1E8F0E0108233
:10091000808182608083808181608083E0E8F0E074
:10092000808181608083E1EBF0E08081846080835E
:10093000E0EBF0E0808181608083EAE7F0E0808195
:1009400084608083808182608083808181608083F5
:100950008081806880831092C10008951F93CF9397
:10096000DF93182FEB0161E00E943605209711F408
:1009700060E004C0CF3FD10539F461E0812FDF9101
:10098000CF911F910C946F05E12FF0E0E859FF4FD4
:10099000E491E330F9F048F4E130B9F0E230A1F548
:1009A00084B5806284BDC8BD34C0E730E9F0E8306A
:1009B00019F1E43049F580918000806280938000D5
:1009C000D0938B00C0938A0024C084B5806884BD16
:1009D000C7BD1FC080918000806880938000D09345
:1009E0008900C093880015C08091B0008068809312
:1009F000B000C093B3000DC08091B00080628093BE
:100A0000B000C093B40005C0C038D1050CF0B5CF1C
:100A1000AFCFDF91CF911F910895833081F028F4FB
:100A2000813099F08230A1F008958730A9F08830A4
:100A3000B9F08430D1F4809180008F7D03C0809123
:100A400080008F7780938000089584B58F7702C0EF
:100A500084B58F7D84BD08958091B0008F7703C0E9
:100A60008091B0008F7D8093B0000895CF93DF9385
:100A700090E0FC01E458FF4F2491FC01E057FF4F48
:100A80008491882349F190E0880F991FFC01E85474
:100A9000FF4FA591B49182559F4FFC01C591D49110
:100AA0009FB7611108C0F8948C91209582238C9394
:100AB000888182230AC0623051F4F8948C91322FDD
:100AC000309583238C938881822B888304C0F8948B
:100AD0008C91822B8C939FBFDF91CF9108950F93C0
:100AE0001F93CF93DF931F92CDB7DEB7282F30E04F
:100AF000F901E859FF4F8491F901E458FF4F14912F
:100B0000F901E057FF4F04910023C9F0882321F039
:100B100069830E940D056981E02FF0E0EE0FFF1F51
:100B2000E255FF4FA591B4919FB7F8948C91611154
:100B300003C01095812301C0812B8C939FBF0F9020
:100B4000DF91CF911F910F910895CF93DF93282FBD
:100B500030E0F901E859FF4F8491F901E458FF4F63
:100B6000D491F901E057FF4FC491CC2391F081114A
:100B70000E940D05EC2FF0E0EE0FFF1FEC55FF4F2C
:100B8000A591B4912C912D2381E090E021F480E097
:100B900002C080E090E0DF91CF910895FC01818D4B
:100BA000228D90E0805C9F4F821B91098F73992763
:100BB0000895FC01918D828D981731F0828DE80F98
:100BC000F11D858D90E008958FEF9FEF0895FC0152
:100BD000918D828D981761F0828DDF01A80FB11D74
:100BE0005D968C91928D9F5F9F73928F90E0089598
:100BF0008FEF9FEF08958BE697E0892B49F080E017
:100C000090E0892B29F00E946B0781110C94000061
:100C10000895FC01848DDF01A80FB11DA35ABF4FB9
:100C20002C91848D90E001968F739927848FA689EB
:100C3000B7892C93A089B1898C9180648C93938D12
:100C4000848D981306C00288F389E02D80818F7D02
:100C500080830895CF93DF93EC01888D8823C9F0BA
:100C6000EA89FB89808185FD05C0A889B9898C91B5
:100C700086FD0FC00FB607FCF5CF808185FFF2CF50
:100C8000A889B9898C9185FFEDCFCE010E94090614
:100C9000E7CFDF91CF910895CF92DF92FF920F932C
:100CA0001F93CF93DF931F92CDB7DEB76C0181E026
:100CB000D60158968C9358975B969C915B975C965F
:100CC0008C915C97981307C05096ED91FC915197C9
:100CD000808185FD2EC0F601038D10E00F5F1F4F50
:100CE0000F731127F02EF601848DF81211C00FB684
:100CF00007FCF9CFD6015096ED91FC915197808178
:100D000085FFF1CFC60169830E9409066981EBCF97
:100D1000838DE80FF11DE35AFF4F6083D6015B9688
:100D20000C935B975296ED91FC9153978081806272
:100D30000CC0D6015696ED91FC9157976083509662
:100D4000ED91FC91519780818064808381E090E0F7
:100D50000F90DF91CF911F910F91FF90DF90CF9077
:100D60000895BF92CF92DF92EF92FF92CF93DF93DD
:100D7000EC016A017B01B22EE889F98982E0808367
:100D8000411581EE580761057105A1F060E079E039
:100D90008DE390E0A70196010E94C90B2150310913
:100DA000410951095695479537952795211580E1B9
:100DB000380798F0E889F989108260E874E88EE1D4
:100DC00090E0A70196010E94C90B21503109410909
:100DD00051095695479537952795EC85FD853083C4
:100DE000EE85FF852083188EEC89FD89B082EA8923
:100DF000FB89808180618083EA89FB8980818860AA
:100E00008083EA89FB89808180688083EA89FB8905
:100E100080818F7D8083DF91CF91FF90EF90DF9075
:100E2000CF90BF9008951F920F920FB60F9211248A
:100E30002F938F939F93EF93FF93E0919301F09102
:100E400094018081E0919901F0919A0182FD12C094
:100E5000908180919C018F5F8F7320919D018217FB
:100E600051F0E0919C01F0E0ED57FE4F958F80939B
:100E70009C0101C08081FF91EF919F918F912F91F3
:100E80000F900FBE0F901F9018951F920F920FB6E4
:100E90000F9211242F933F934F935F936F937F9300
:100EA0008F939F93AF93BF93EF93FF9383E891E06A
:100EB0000E940906FF91EF91BF91AF919F918F9191
:100EC0007F916F915F914F913F912F910F900FBE46
:100ED0000F901F90189583E891E00E94CE0521E0C5
:100EE000892B09F420E0822F089510928601109238
:100EF000850188EE93E0A0E0B0E0809387019093B5
:100F00008801A0938901B0938A0189E391E09093CD
:100F100084018093830185EC90E09093900180930D
:100F20008F0184EC90E0909392018093910180EC8A
:100F300090E0909394018093930181EC90E09093E2
:100F400096018093950182EC90E0909398018093B4
:100F5000970186EC90E090939A018093990110920A
:100F60009C0110929D0110929E0110929F01089584
:100F700008950E9473040E94B8070E94F000CBEF0E
:100F8000D5E00E94BD022097E1F30E94FB05F9CF56
:100F9000CF92DF92EF92FF920F931F93CF93DF9345
:100FA0007C016A01EB0100E010E00C151D0571F0F9
:100FB0006991D701ED91FC910190F081E02DC7017D
:100FC0000995892B19F00F5F1F4FEFCFC801DF91F3
:100FD000CF911F910F91FF90EF90DF90CF900895E8
:100FE0006115710581F0DB010D900020E9F7AD017D
:100FF00041505109461B570BDC01ED91FC910280D9
:10100000F381E02D099480E090E008950C94F007BE
:10101000DC01ED91FC910190F081E02D099465E4F3
:1010200071E00C94F0078F929F92AF92BF92DF9283
:10103000EF92FF920F931F93CF93DF93CDB7DEB75D
:10104000A1970FB6F894DEBF0FBECDBF7C01F42F81
:10105000D52ECB0119A2223008F42AE08E010F5DB3
:101060001F4F822E912CA12CB12C6F2F7D2DA5010D
:1010700094010E94C90BF22FD32ECA01015011090D
:101080006A3014F4E0E301C0E7E3E60FD801EC9323
:10109000232B242B252B49F7B801C7010E94F00709
:1010A000A1960FB6F894DEBF0FBECDBFDF91CF91F2
:1010B0001F910F91FF90EF90DF90BF90AF909F90A6
:1010C0008F900895CF92DF92EF92FF920F931F932C
:1010D000CF93DF93EC016A017B012115310579F48F
:1010E000E881F9810190F081E02D642FDF91CF91AB
:1010F0001F910F91FF90EF90DF90CF9009942A30CD
:101100003105E9F477FF1AC06DE20E9408088C01EE
:1011100044275527BA014C195D096E097F092AE059
:10112000CE010E941308800F911FDF91CF911F9174
:101130000F91FF90EF90DF90CF9008952AE0B701D4
:10114000A601CE01DF91CF911F910F91FF90EF90FB
:10115000DF90CF900C9413084F925F926F927F9222
:101160008F929F92AF92BF92CF92DF92EF92FF92B7
:101170000F931F93CF93DF93EC016A017B01B22E93
:101180009A01AB01C701B6010E94C50B882319F073
:1011900068E471E027C026013701E89477F82FEF63
:1011A0003FEF4FE75FE7C301B2010E94C50B81111A
:1011B0000DC02FEF3FEF4FE75FE7C301B2010E9481
:1011C0000F0A18161CF46CE471E00CC02FEF3FEF0F
:1011D0004FE75FE4C701B6010E945E0B1816ACF43E
:1011E00060E571E0CE01DF91CF911F910F91FF90EB
:1011F000EF90DF90CF90BF90AF909F908F907F90B7
:101200006F905F904F900C94F0072FEF3FEF4FE7F8
:101210005FECC701B6010E940F0A87FDE1CF20E015
:1012200030E0A901C701B6010E940F0A87FF0AC07A
:101230006DE2CE010E9408088C01F7FAF094F7F8ED
:10124000F09402C000E010E0A12C60E070E080E0CB
:101250009FE3AB1441F020E030E040E251E40E9413
:10126000130AA394F6CF9B01AC01C701B6010E94FB
:10127000AB096B017C010E94800A2B013C010E949A
:10128000AC0A9B01AC01C701B6010E94AA096B011F
:101290007C012AE0B301A201CE010E941308080FCD
:1012A000191FBB2039F064E571E0CE010E94F00700
:1012B000080F191F7B2C772041F120E030E040E23D
:1012C00051E4C701B6010E94620B6B017C010E94D0
:1012D0007B0A4B01AA2497FCA094BA2C2AE030E0A8
:1012E000B501A401CE010E946208080F191FC501B3
:1012F000B4010E94AE0A9B01AC01C701B6010E9475
:10130000AA096B017C017A94D6CFC801DF91CF91F5
:101310001F910F91FF90EF90DF90CF90BF90AF9013
:101320009F908F907F906F905F904F9008950F9354
:101330001F93CF93DF93EC010E94AC088C01CE0188
:101340000E940F08800F911FDF91CF911F910F9185
:10135000089508955058BB27AA270ED075C166D1AD
:1013600030F06BD120F031F49F3F11F41EF45BC1DB
:101370000EF4E095E7FB51C1E92F77D180F3BA175E
:10138000620773078407950718F071F49EF58FC103
:101390000EF4E0950B2EBA2FA02D0B01B901900190
:1013A0000C01CA01A0011124FF27591B99F0593FD4
:1013B00050F4503E68F11A16F040A22F232F342F1C
:1013C0004427585FF3CF469537952795A795F0406A
:1013D0005395C9F77EF41F16BA0B620B730B840B7F
:1013E000BAF09150A1F0FF0FBB1F661F771F881F37
:1013F000C2F70EC0BA0F621F731F841F48F487958F
:1014000077956795B795F7959E3F08F0B3CF93957D
:10141000880F08F09927EE0F979587950895D9D0F2
:1014200008F481E008950CD00FC107D140F0FED040
:1014300030F021F45F3F19F0F0C0511139C1F3C011
:1014400014D198F39923C9F35523B1F3951B550B88
:10145000BB27AA2762177307840738F09F5F5F4F87
:10146000220F331F441FAA1FA9F333D00E2E3AF0C8
:10147000E0E830D091505040E695001CCAF729D0E2
:10148000FE2F27D0660F771F881FBB1F2617370731
:101490004807AB07B0E809F0BB0B802DBF01FF2761
:1014A00093585F4F2AF09E3F510568F0B6C000C1C7
:1014B0005F3FECF3983EDCF3869577956795B7959B
:1014C000F7959F5FC9F7880F911D9695879597F9B6
:1014D0000895E1E0660F771F881FBB1F621773072F
:1014E0008407BA0720F0621B730B840BBA0BEE1F44
:1014F00088F7E095089504D06894B111D9C0089593
:10150000BCD088F09F5790F0B92F9927B751A0F021
:10151000D1F0660F771F881F991F1AF0BA95C9F787
:1015200012C0B13081F0C3D0B1E00895C0C0672FC0
:10153000782F8827B85F39F0B93FCCF38695779537
:101540006795B395D9F73EF4909580957095619520
:101550007F4F8F4F9F4F0895E89409C097FB3EF44B
:1015600090958095709561957F4F8F4F9F4F9923F0
:10157000A9F0F92F96E9BB279395F695879577956E
:101580006795B795F111F8CFFAF4BB0F11F460FF2E
:101590001BC06F5F7F4F8F4F9F4F16C0882311F086
:1015A00096E911C0772321F09EE8872F762F05C09A
:1015B000662371F096E8862F70E060E02AF09A9535
:1015C000660F771F881FDAF7880F9695879597F92A
:1015D0000895990F0008550FAA0BE0E8FEEF1616C4
:1015E0001706E807F907C0F012161306E407F50717
:1015F00098F0621B730B840B950B39F40A2661F08B
:10160000232B242B252B21F408950A2609F4A1402D
:10161000A6958FEF811D811D089597F99F6780E83A
:1016200070E060E008959FEF80EC089500240A9434
:101630001616170618060906089500240A941216AD
:101640001306140605060895092E0394000C11F4E0
:10165000882352F0BB0F40F4BF2B11F460FF04C08D
:101660006F5F7F4F8F4F9F4F089557FD9058440FE6
:10167000551F59F05F3F71F04795880F97FB991FF1
:1016800061F09F3F79F087950895121613061406AE
:10169000551FF2CF4695F1DF08C01616170618063B
:1016A000991FF1CF86957105610508940895E89416
:1016B000BB2766277727CB0197F908958ADF08F4BF
:1016C0008FEF08950BD0C0CFB1DF28F0B6DF18F050
:1016D000952309F0A2CFA7CF1124EACFC6DFA0F34C
:1016E000959FD1F3950F50E0551F629FF001729FB7
:1016F000BB27F00DB11D639FAA27F00DB11DAA1FD6
:10170000649F6627B00DA11D661F829F2227B00D22
:10171000A11D621F739FB00DA11D621F839FA00DAD
:10172000611D221F749F3327A00D611D231F849FFD
:10173000600D211D822F762F6A2F11249F57504054
:101740008AF0E1F088234AF0EE0FFF1FBB1F661FEF
:10175000771F881F91505040A9F79E3F510570F0A8
:101760005CCFA6CF5F3FECF3983EDCF38695779590
:101770006795B795F795E7959F5FC1F7FE2B880FA3
:10178000911D9695879597F9089523DF880B990BFE
:101790000895A1E21A2EAA1BBB1BFD010DC0AA1FB2
:1017A000BB1FEE1FFF1FA217B307E407F50720F0CA
:1017B000A21BB30BE40BF50B661F771F881F991F45
:1017C0001A9469F760957095809590959B01AC018E
:1017D000BD01CF010895EE0FFF1F0590F491E02D9C
:0617E0000994F894FFCF0C
:1017E600000034C2B52EFC4125DEA5C02B7A69C3A4
:1017F6006B4FB1C25D035D037069645F736F6C6CA0
:1018060056616C75653A20007069645F6F75747017
:1018160075743A2000000000004C06C807CE05E7A4
:1018260005D9052A060D0A006E616E00696E66000E
:061836006F7666002E0033
:00000001FF
